:100000000C944E050C9476050C9476050C947605AC
:100010000C9476050C9476050C9476050C94760574
:100020000C9476050C9476050C9476050C947F1947
:100030000C9476050C9476050C9476050C94760554
:100040000C94DD180C9476050C944D190C9427191A
:100050000C9476050C9476050C9476050C94760534
:100060000C943B1A0C94760500000000003E5B4F98
:100070005B3E3E6B4F6B3E1C3E7C3E1C183C7E3C08
:10008000181C577D571C1C5E7F5E1C00183C180016
:10009000FFE7C3E7FF0018241800FFE7DBE7FF30A6
:1000A000483A060E2629792926407F050507407F14
:1000B00005253F5A3CE73C5A7F3E1C1C08081C1C87
:1000C0003E7F14227F22145F5F005F5F06097F017D
:1000D0007F006689956A606060606094A2FFA29468
:1000E00008047E040810207E201008082A1C080836
:1000F0001C2A08081E101010100C1E0C1E0C303884
:100100003E3830060E3E0E06000000000000005F84
:1001100000000007000700147F147F14242A7F2AA0
:100120001223130864623649562050000807030062
:10013000001C2241000041221C002A1C7F1C2A08AE
:10014000083E080800807030000808080808000011
:1001500060600020100804023E5149453E00427F85
:10016000400072494949462141494D331814127FD4
:100170001027454545393C4A494931412111090774
:100180003649494936464949291E000014000000F5
:1001900040340000000814224114141414140041C7
:1001A00022140802015909063E415D594E7C121184
:1001B000127C7F494949363E414141227F414141BC
:1001C0003E7F494949417F090909013E4141517337
:1001D0007F0808087F00417F41002040413F017FA8
:1001E000081422417F404040407F021C027F7F0470
:1001F00008107F3E4141413E7F090909063E4151B9
:10020000215E7F09192946264949493203017F01A8
:10021000033F4040403F1F2040201F3F4038403FA9
:10022000631408146303047804036159494D4300BF
:100230007F4141410204081020004141417F0402F6
:10024000010204404040404000030708002054548D
:1002500078407F284444383844444428384444286B
:100260007F385454541800087E090218A4A49C78BE
:100270007F0804047800447D40002040403D007F1A
:100280001028440000417F40007C047804787C08FA
:100290000404783844444438FC18242418182424CE
:1002A00018FC7C08040408485454542404043F44B3
:1002B000243C4040207C1C2040201C3C4030403CE2
:1002C00044281028444C9090907C4464544C440042
:1002D00008364100000077000000413608000201A6
:1002E0000204023C2623263C1EA1A161123A404092
:1002F000207A38545455592155557941225454780F
:1003000042215554784020545579400C1E527212A7
:100310003955555559395454545939555454580030
:1003200000457C410002457D420001457C407D1234
:1003300011127DF0282528F07C5455450020545496
:100340007C547C0A097F4932494949323A44444441
:100350003A324A4848303A4141217A3A424020787C
:10036000009DA0A07D3D4242423D3D4040403D3C7D
:1003700024FF2424487E4943662B2FFC2F2BFF09A2
:1003800029F620C0887E0903205454794100004496
:100390007D413048484A32384040227A007A0A0A81
:1003A000727D0D19317D2629292F282629292926F4
:1003B00030484D4020380808080808080808382F39
:1003C00010C8ACBA2F102834FA00007B00000814C3
:1003D0002A142222142A14085500550055AA55AA99
:1003E00055AAFF55FF55FF000000FF00101010FF39
:1003F00000141414FF001010FF00FF1010F010F094
:10040000141414FC001414F700FF0000FF00FF1484
:1004100014F404FC141417101F10101F101F1414D0
:10042000141F00101010F0000000001F101010101A
:100430001F10101010F010000000FF10101010100E
:1004400010101010FF10000000FF140000FF00FF4C
:1004500000001F10170000FC04F4141417101714E8
:1004600014F404F40000FF00F7141414141414140A
:10047000F700F7141414171410101F101F1414147D
:10048000F4141010F010F000001F101F0000001FE7
:1004900014000000FC140000F010F01010FF10FF1A
:1004A000141414FF141010101F00000000F010FFAF
:1004B000FFFFFFFFF0F0F0F0F0FFFFFF0000000093
:1004C00000FFFF0F0F0F0F0F3844443844FC4A4A17
:1004D0004A347E02020606027E027E0263554941CC
:1004E000633844443C04407E201E2006027E020203
:1004F00099A5E7A5991C2A492A1C4C7201724C3017
:100500004A4D4D303048784830BC625A463D3E49ED
:100510004949007E0101017E2A2A2A2A2A44445F91
:10052000444440514A444040444A51400000FF0185
:1005300003E080FF000008086B6B08361236243693
:10054000060F090F060000181800000010100030F8
:1005500040FF0101001F01011E00191D1712003C80
:100560003C3C3C0000000000000103070F1F3F7FE0
:100570000080C0E0F0F8FCFEDB40A4A62EAF200017
:10058000A1C8D300408DAED580A800006000000057
:100590000000000000000000000000E0000000007B
:1005A00000000000000000000001E000000000006A
:1005B000000000000000000001F00000000000004A
:1005C0000000000000000003F00000000000000038
:1005D00000000000000007F0000000000000000024
:1005E000000000000007F80000000000000000000C
:1005F000000000000FF800000003C0007E000001B2
:10060000E0007F0FF800000003C000FE000001E0E2
:1006100000FFEFF800000003C000FE000001E00052
:10062000FFFFF800000003C000F00000000F007F93
:10063000FE7FC0000003C000F00000000F003FFE7E
:100640007FF83FF1FBCFFCFEF3BC3DEFE01FFE7FE8
:10065000FF7FFBFFDFFEFEFFBC3DEFE01FC6FFFF9D
:100660007FFBFFDFFEFEFFBC3DEFE00FE3C7FE7840
:100670007BC3DE1EF0FFBC3DEF0007FF87FC787BED
:10068000C3DE1EF0F83C3DEF0001FFFFF0007BC32E
:10069000C01EF0F03C3DEF0001F37FE03FFBC3CF15
:1006A000FEF0F03C3DEF0003E33F807FFBC3DFFE45
:1006B000F0F03C3DEF0007E73C00787BC3DE1EF026
:1006C000F03C3DEF0007FFBE00787BC3DE1EF0F07C
:1006D0003C3DEF0007FFFE00787BC3DE1EF0F03CE0
:1006E0003DEF000FFFFE007FFBFFDFFEF0F03FFD60
:1006F000EFE00FFFFF007FFBFFDFFEF0F03FFDEFBD
:10070000E00FF9FF003E79F9CF9EF0F01F3DE7E0E2
:100710001FF1FF0000000000000000000000001FAB
:1007200080FF007FFFFFFFFFFFFFFFFFFFE01C00D8
:100730007F007FFFFFFFFEB46D888D18E000001F73
:10074000007FFFFFFFFE95AD7DB577E000000F0055
:100750007FFFFFFFFEA5AD9D8D19E0000006007F25
:10076000FFFFFFFEB5ADEDB57EE00000000000012B
:100770008000000000000000000003800000000076
:10078000000000000007C0000000000000000000A2
:1007900007C00000000000000000000FC0000000C3
:1007A0000000000000001FE000000000000000004A
:1007B000001FE00000000000000000003FE000001B
:1007C000000000000000003FF000000000000000FA
:1007D00000007FF0000000000000001FF87FF00024
:1007E0000000000000003FFE7FF00000000000005D
:1007F000003FFF7FF0000000000000001FFFFBE053
:10080000000000000000000FFFF9FFC00000000022
:1008100000000FFFF9FFF800000000000007FFF1E3
:10082000FFFF00000000000003FC73FFFF800000DA
:1008300000000001FE3FFFFF80000000000000FFFD
:100840001E0FFF000000000000007FFE1FFC0000E4
:1008500000000000003FFFFFF80000000000000063
:100860000FDFFFE0000000000000001F19FFC000C4
:100870000000000000003F3CFF00000000000000FE
:10088000007E7CF800000000000000007FFE7C007D
:1008900000000000000000FFFFFC0000000000005E
:1008A0000000FFFFFE0000000000000000FFFFFE50
:1008B0000000000000000001FFEFFE00000000004B
:1008C000000001FFCFFE0000000000000003FF0752
:1008D000FE0000000000000003FC07FE0000000016
:1008E00000000003F003FE00000000000000018093
:1008F00000FE000000000000000000007E0000007C
:10090000000000000000003E0000000000000000A9
:1009100000000C000000000000078000FC00000345
:10092000C0000000078001FC000003C000000007B9
:100930008001FC000003C0000000078001E000000F
:10094000001E000000078001E00000001E007FE3A1
:10095000F79FF9FDE7787BDFC0FFF7FFBFFDFDFFE5
:10096000787BDFC0FFF7FFBFFDFDFF787BDFC0F0C6
:10097000F787BC3DE1FF787BDE00F0F787BC3DE107
:10098000F0787BDE0000F787803DE1E0787BDE00D9
:100990007FF7879FFDE1E0787BDE00FFF787BFFDF3
:1009A000E1E0787BDE00F0F787BC3DE1E0787BDEBC
:1009B00000F0F787BC3DE1E0787BDE00F0F787BC14
:1009C0003DE1E0787BDE00FFF7FFBFFDE1E07FFB6C
:1009D000DFC0FFF7FFBFFDE1E07FFBDFC07CF3F38B
:1009E0009F3DE1E03E7BCFC0000000000000000022
:1009F000000000FFFFFFFFFFFFFFFFFFFFC0FFFF43
:100A0000FFFFFD68DB111A31C0FFFFFFFFFD2B5A0E
:100A1000FB6AEFC0FFFFFFFFFD4B5B3B1A33C0FFDC
:100A2000FFFFFFFD6B5BDB6AFDC04F4C4544206E52
:100A30006F7420666F756E6400000000002400274C
:100A4000002A0000000000250028002B0000000004
:100A50000023002600290004040404040404040202
:100A6000020202020203030303030301020408104B
:100A70002040800102040810200102040810200018
:100A8000000008000201000003040700000000004D
:100A90000000002200FF21005A1BAA2011241FBEC3
:100AA000CFEFD8E0DEBFCDBF12E0A0E0B1E0E0EDD7
:100AB000FBE402C005900D92A032B107D9F724E003
:100AC000A0E2B2E001C01D92A632B207E1F715E044
:100AD000CDE4D5E004C02197FE010E94BF22CC34B2
:100AE000D107C9F70E945A1C0C94DB250C94000016
:100AF000CF92DF92EF92FF92DC01A03282E0B80742
:100B0000D4F5A53BB10514F0A4EBB0E04091D403BB
:100B100028E830E0241B310947FD3395220F331FAD
:100B2000220F331F6901330FEE08FF084091D503F0
:100B300028E532E0241B310947FD3395220F331F8E
:100B4000220F331F032E000C440B550B2C193D09AB
:100B50004E095F09B7FF02C0B0E0A0E00E941B226F
:100B600024EB30E040E050E00E94F121C20ED31EA1
:100B7000E41EF51ED601E091D303EC3080F5209100
:100B8000D40388E890E0821B910927FD9395880F94
:100B9000991F880F991FA817B90784F02091D503D2
:100BA00088E592E0821B910927FD9395880F991F94
:100BB000880F991FA817B9070CF4CD010297880F69
:100BC000991F4FB7F8942E2F30E0F901EE0FFF1F59
:100BD000E20FF31FE057FC4F928381834FBFFF90DA
:100BE000EF90DF90CF9008950895833081F028F43E
:100BF000813099F08230A9F008958730A9F08830CB
:100C0000C9F08430B1F4809180008F7D03C0809161
:100C100080008F7780938000089584B58F7784BD9E
:100C2000089584B58F7DFBCF8091B0008F7780933E
:100C3000B00008958091B0008F7DF9CFCF93DF93FE
:100C4000282F30E0F901E158F54F8491F901E55979
:100C5000F54FD491F901E95AF54FC491CC23A1F095
:100C600081110E94F505EC2FF0E0EE0FFF1FE35B12
:100C7000F54FA591B491EC91ED2381E090E009F45A
:100C800080E0DF91CF91089580E090E0FACF1F934C
:100C9000CF93DF93282F30E0F901E158F54F84918D
:100CA000F901E559F54FD491F901E95AF54FC4918D
:100CB000CC23A9F0162F81110E94F505EC2FF0E04E
:100CC000EE0FFF1FED5BF54FA591B4918FB7F89430
:100CD000EC91111108C0D095DE23DC938FBFDF911A
:100CE000CF911F910895DE2BF8CFCF93DF9390E043
:100CF000FC01E559F54F2491895A954FFC018491E7
:100D00008823D1F090E0880F991FFC01E75CF54F34
:100D1000A591B491FC01ED5BF54FC591D491623082
:100D200071F49FB7F8943C91822F809583238C9324
:100D3000E8812E2B28839FBFDF91CF9108958FB735
:100D4000F894EC912E2B2C938FBFF6CF3FB7F894ED
:100D50008091EB029091EC02A091ED02B091EE0235
:100D600026B5A89B05C02F3F19F00196A11DB11D06
:100D70003FBFBA2FA92F982F8827BC01CD01620F42
:100D8000711D811D911D42E0660F771F881F991FFD
:100D90004A95D1F708958F929F92AF92BF92CF92CA
:100DA000DF92EF92FF924B015C010E94A6066B015D
:100DB0007C010E94A6066C197D098E099F09683E78
:100DC000734081059105A8F321E0821A9108A108DA
:100DD000B10888EEC80E83E0D81EE11CF11C811416
:100DE0009104A104B10429F7FF90EF90DF90CF9018
:100DF000BF90AF909F908F90089508950895AF92FF
:100E0000BF92CF92DF92EF92FF920F931F93CF93F7
:100E1000DF936C017B018B01040F151FEB015E0159
:100E2000AE18BF08C017D10759F06991D601ED91EE
:100E3000FC910190F081E02DC6010995892B79F78D
:100E4000C501DF91CF911F910F91FF90EF90DF903F
:100E5000CF90BF90AF900895FC01538D448D252F06
:100E600030E0842F90E0821B930B541710F0CF9644
:100E7000089501970895FC01918D828D981761F076
:100E8000A28DAE0FBF2FB11D5D968C91928D9F5F8D
:100E90009F73928F90E008958FEF9FEF0895FC016C
:100EA000918D828D981731F0828DE80FF11D858D1F
:100EB00090E008958FEF9FEF0895FC01918D228DB2
:100EC000892F90E0805C9F4F821B91098F73992737
:100ED000089583EF92E00E945D0721E0892B09F4D9
:100EE00020E0822F089580E090E0892B29F00E9475
:100EF000690781110C9400000895FC01A48DA80FCE
:100F0000B92FB11DA35ABF4F2C91848D90E001964B
:100F10008F739927848FA689B7892C93A089B1896B
:100F20008C91837080648C93938D848D981306C00C
:100F30000288F389E02D80818F7D80830895EF9270
:100F4000FF920F931F93CF93DF93EC0181E0888F83
:100F50009B8D8C8D98131AC0E889F989808185FF53
:100F600015C09FB7F894EE89FF896083E889F989F5
:100F700080818370806480839FBF81E090E0DF91F7
:100F8000CF911F910F91FF90EF900895F62E0B8D4A
:100F900010E00F5F1F4F0F731127E02E8C8D8E1105
:100FA0000CC00FB607FCFACFE889F989808185FF6C
:100FB000F5CFCE010E947D07F1CFEB8DEC0FFD2F19
:100FC000F11DE35AFF4FF0829FB7F8940B8FEA8927
:100FD000FB8980818062CFCFCF93DF93EC01888D36
:100FE0008823B9F0AA89BB89E889F9898C9185FDA4
:100FF00003C0808186FD0DC00FB607FCF7CF8C9132
:1010000085FFF2CF808185FFEDCFCE010E947D0765
:10101000E9CFDF91CF910895EF92FF920F931F9345
:10102000CF93DF93EC01EC80FD806E157F050CF013
:1010300070C057FF04C0240F351F50E040E08E8180
:101040009F81FA01E20FF31F8E179F071CF49C018A
:10105000241B350B121613060CF05BC0922F842F45
:101060008695869586958E9DD0018F9DB00D112415
:101070006A0F7B1FAF8DB8A1A60FB71F477049F14C
:1010800088E0841B482F682F70E0FB01E059FA4F7D
:10109000E491281708F063C0621B71092FEF30E05C
:1010A00002C0359527956A95E2F7E22301301105D4
:1010B00039F0B0F10230110561F58C91E82702C0DA
:1010C0008C91E82BEC93941720F12C813D81A20F99
:1010D000B31FE92FE41BE83078F00230110521F549
:1010E0008E2F9C9190959C932C813D81A20FB31FD4
:1010F00088508830B0F7E770EE2359F0F0E0E859F7
:10110000FA4FE49101301105F9F010F102301105A8
:1011100019F1DF91CF911F910F91FF90EF900895FA
:10112000E0958C91E823CECF81E00115110509F4FB
:1011300080E081959E2F8C932C813D81A20FB31F5F
:1011400098509830C0F7D7CF8C91E82BEC93E1CF33
:10115000E0958C91E823FACF8C91E827F7CF013006
:10116000110509F4ADCFE0F20230110509F4A5CF65
:10117000AE0DBF1DAECF0F931F93CF93DF9377FFBD
:1011800004C0260F371F70E060E0DC011496CD919B
:10119000DC91FB01E20FF31FCE17DF071CF49E0169
:1011A000261B370B121613064CF5FA0157FD37961E
:1011B000A3E0F595E795AA95E1F7EC9FD001ED9FA7
:1011C000B00DFC9FB00D11246A0F7B1FDC015F96F0
:1011D000ED91FC91E60FF71F4770552781E090E0F5
:1011E00001C0880F4A95EAF7482F0130110559F0E0
:1011F000A8F02E0F3F1F02301105E1F0DF91CF91D3
:101200001F910F9108952E0F3F1FE217F307B1F3BF
:101210008191DF011197842B8C93F7CF80952E0F4E
:101220003F1FE217F30751F39191DF0111979823C4
:101230009C93F7CFE217F30709F38191DF01119730
:1012400084278C93F7CF0F931F93FA01DC015696F6
:101250004C9156974230E9F04330A1F1413061F5AD
:1012600014964D915C91DA01AE1BBF0BFD01E21BA0
:10127000F30B77FD0BC0DC0116964D915C91641762
:10128000750724F4AB01BF010E94BB081F910F91A9
:10129000089514964D915C91DA01A61BB70BBD0120
:1012A00061507109DC0116964D915C91DA01AE1B1B
:1012B000BF0BFD01E21BF30B77FDE8CFAF010E94EE
:1012C0000C08E4CF16964D915C91DA01A61BB70B82
:1012D000BD0161507109CDCF0F931F93FA01DC015D
:1012E00056964C9156974230A9F0433091F14130D7
:1012F00019F514964D915C91DA01AE1BBF0BFD01FF
:101300003197F7FD04C0AB01BF010E940C081F918B
:101310000F91089514964D915C91DA01A61BB70BBD
:10132000BD01DC0116964D915C91DA01AE1BBF0B3D
:10133000FD013197621B730BF7FDE9CFDC011696B7
:101340004D915C91E417F50714F7AF010E94BB08BB
:10135000DECF16964D915C91DA01A61BB70BBD014D
:10136000621B730BCECFFC0177FD64C08085918535
:10137000681779070CF05EC057FD5CC082859385C5
:10138000481759070CF056C086898230B1F0833077
:1013900029F1813041F484819581841B950BAB0147
:1013A000BC01615071092130310509F108F443C0D5
:1013B0002230310509F463C0089584819581DC01F0
:1013C000A61BB70BBD016150710986819781DC01B5
:1013D000A41BB50BAD0141505109E5CF8681978122
:1013E000861B970BBA01AC0141505109DCCFCA01F1
:1013F00057FD0796A3E095958795AA95E1F7A481F7
:10140000B5818A9F90018B9F300D9A9F300D1124DA
:10141000620F731F078CF0A1E02DE60FF71F4770D6
:10142000552721E030E001C0220F4A95EAF780817C
:10143000822B80830895CA0157FD079633E0959566
:1014400087953A95E1F7A481B5818A9F90018B9F9A
:10145000300D9A9F300D1124620F731F078CF0A17D
:10146000E02DE60FF71F4770552781E090E001C09F
:10147000880F4A95EAF7809590818923DACFCA01CF
:1014800057FD079623E0959587952A95E1F7A48166
:10149000B5818A9F90018B9F300D9A9F300D11244A
:1014A000620F731F078CF0A1E02DE60FF71F477046
:1014B000552721E030E001C0220F4A95EAF78081EC
:1014C0008227B7CF08958CBD9DBD08950895FC0176
:1014D0006370668B8481958126813781613039F014
:1014E000633029F091878087338722870895318779
:1014F00020879387828708952F923F924F925F9221
:101500006F927F928F929F92AF92BF92CF92DF9213
:10151000EF92FF920F931F93CF93DF93CDB7DEB778
:101520006A970FB6F894DEBF0FBECDBF9A8F898F32
:101530007A8369834A01D22E18870F833701BC2C26
:10154000DC0159962D913C915A972115310509F0EE
:1015500015C118968D919C911997681779070CF011
:10156000D7C11A968D919C91481759070CF0D0C19C
:101570004C2C512CB6E0CB9E600D711D11247C8744
:101580006B87161617060CF0C3C1EA2DF0E0FA8738
:10159000E98793E0EE0FFF1F9A95E1F7F88BEF874D
:1015A000CF01840F951F181619060CF0B1C1A98D33
:1015B000BA8D58968C91811104C0BFEABD1508F40C
:1015C000D394A98DBA8DED91FC9111970284F38586
:1015D000E02DCD010995B5E0DB9EC0011124E98124
:1015E000FA81FC83EB83312C212C9C0128593F4F3D
:1015F000388F2F8B4A2D50E05E8B4D8BEF89F88D05
:10160000E20DF31D44919E828D82D12CC12C698103
:101610007A81620D731D7A8B698B842F90E09C8B8D
:101620008B8BE98DFA8DA081B18140FF82C0F1E002
:10163000BF126FC0AF126DC01C96ED91FC912F814F
:101640003885A4014C0D5D1D69897A89898D9A8D33
:101650000995EB89FC89F595E7954E2F5FEFC51A43
:10166000D50A6D817E818D899E89680F791F7E8361
:101670006D8398E0C916D10481F6AFEF2A1A3A0AB1
:10168000EB81FC81E40DF51DFC83EB83F5E02F1667
:10169000310409F0B3CF2F81388526153705B9F00D
:1016A000A98DBA8DED91FC91B1E0BB1257C0AB1280
:1016B00055C069817A816B5F7F4F0088F189E02D89
:1016C000830128E030E0A401898D9A8D0995A98DC8
:1016D000BA8DED91FC9111970688F789E02DCD0127
:1016E0006A960FB6F894DEBF0FBECDBFDF91CF91E3
:1016F0001F910F91FF90EF90DF90CF90BF90AF9030
:101700009F908F907F906F905F904F903F902F9021
:1017100009941E96ED91FC91EF80F88409851A8555
:1017200092014D815E816B817C81898D9A8D0995B5
:1017300090CF2F8138852615370509F48ACF31E0FF
:10174000B31207C0A31205C01C96ED91FC91930142
:1017500078CF1E96ED91FC917301E0CF6B857C856F
:10176000641975090684F785E02D73010F851889C2
:101770009201A401898D9A8D0995A9CFF90134961A
:101780009491329745915491D91AB7E0DB9E400D60
:10179000511D1124F901259134913C8B2B8BFA01B9
:1017A00025903490FA013296749031963491398BA9
:1017B000329664903196449041E04C1518F04A15E9
:1017C00008F07FC0662D062C000C770B7C836B83A2
:1017D000842D042C000C990B9E838D83A98DBA8DCA
:1017E000ED91FC9111970284F385E02DCD010995CF
:1017F000512CD12CC12CEA2DF0E0FA87E9872B2D52
:1018000030E03C872B87A401440D511D47FC5A95BD
:10181000588F4F8B69817A81660D711D67FC7A95AF
:101820007E876D877989C71608F051CF2C2D30E05F
:101830004D815E81420F531FA985BA854A9FC00121
:101840004B9F900D5A9F900D1124FC01E80DF91D3E
:10185000F88BEF87852D612C4F89588D420F531FD0
:101860005E8B4D8B671408F050C044244394480E9F
:10187000877041F4C1010196EB89FC89E20DF31DEB
:10188000D4901C01D7FE19C0A98DBA8DED91FC91A1
:10189000662D70E0B1E0BB1219C0AB1217C02D85E8
:1018A0003E85620F731F0484F585E02D2F813885F6
:1018B0004D895E89898D9A8D0995DD0C6394842DFF
:1018C000D1CF1E821D821C821B8288CF4B815C81FE
:1018D000640F751FAB85BC856A9FC0016B9F900D1F
:1018E0007A9F900D112469817A81680F791F06848F
:1018F000F785E02DEF80F88409851A859D014F85D5
:101900005889898D9A8D0995D8CF570CC3948ACF61
:101910006A960FB6F894DEBF0FBECDBFDF91CF91B0
:101920001F910F91FF90EF90DF90CF90BF90AF90FD
:101930009F908F907F906F905F904F903F902F90EF
:1019400008958F929F92AF92CF92EF92FF920F9352
:101950001F93CF93DF93EC01262F898D9A8D0097EB
:1019600009F051C06A30D1F41D861C868D8948E08B
:10197000849F900111248E859F85820F931F9F87DE
:101980008E8781E090E0DF91CF911F910F91FF90C2
:10199000EF90CF90AF909F908F9008956D3089F326
:1019A000CC88AD888F898823C1F08C859D8536E0F1
:1019B000C39E800D911D11244885598548175907EC
:1019C00064F44E855F851D861C8638E0A39EC001A9
:1019D0001124840F951F9F878E87EA88FB880889CA
:1019E00019894E855F856C857D85CE010E947C0AB4
:1019F0002C898C859D8546E0249F800D911D1124A6
:101A00009D878C87BECF6A3069F41D861C86FC01D9
:101A10003896E4912D898E859F85E29F800D911DDA
:101A20001124ADCF6D3009F4ACCFFC013496349164
:101A3000631708F4A6CF3296E491E61708F4A1CF15
:101A4000FC01329685909490462F431B342F47E03B
:101A5000349F800C911C1124F401329634913196FC
:101A6000E4913323A9F1EE2399F1CC88F401359662
:101A7000E491AD884F89442301F10E2E000CFF0B39
:101A8000E30FF11DCE9EA001CF9E500D11246C8559
:101A90007D85460F571F68857985641775076CF437
:101AA0004E855F851D861C86FC013896E491AE9EAE
:101AB000400D511D11245F874E87EA88FB880889F5
:101AC00019894E855F856C857D85CE010E947C0AD3
:101AD000F4013496E4912C898C859D85E29F800DDC
:101AE000911D11248DCF6F927F928F929F92AF9212
:101AF000BF92CF92DF92EF92FF920F931F93CF93FB
:101B0000DF93EC016B015A0139014801E881F98149
:101B10000284F385E02D0995E881F9810288F38933
:101B2000E02D87019301A501B601CE010995A5011C
:101B3000480D591D41505109E881F9810288F38906
:101B4000E02D9301B601CE010995E881F981008865
:101B5000F189E02D9401A501B601CE010995C60CCD
:101B6000D71CB60161507109E881F9810088F189BB
:101B7000E02D9401A501CE010995E881F98106883F
:101B8000F789E02DCE01DF91CF911F910F91FF904A
:101B9000EF90DF90CF90BF90AF909F908F907F900D
:101BA0006F9009946F927F928F929F92AF92BF92A3
:101BB000CF92DF92EF92FF920F931F93CF93DF9319
:101BC0005C01EB016A01490138018701DC01ED91FB
:101BD000FC916217730719F5641675062CF0962DA3
:101BE000872D3A01C92ED82E9601261937092F5F65
:101BF0003F4F048CF58DE02DA301BE01C501099571
:101C0000DF91CF911F910F91FF90EF90DF90CF90D8
:101C1000BF90AF909F908F907F906F9008954615E2
:101C2000570591F42617370724F0892D4B01C22F51
:101C3000D82F9E01281939092F5F3F4F068CF78D49
:101C4000E02DA601B401DACF0284F385E02D0995D9
:101C5000D501ED91FC910488F589E02D8301940173
:101C6000A601BE01C5010995D501ED91FC9106883B
:101C7000F789E02DC501DF91CF911F910F91FF9062
:101C8000EF90DF90CF90BF90AF909F908F907F901C
:101C90006F900994EF92FF920F931F93DC011A96B5
:101CA0000D911C911B9718962D913C911997ED91D0
:101CB000FC9100A0F1A1E02D7B0150E040E070E03C
:101CC00060E009951F910F91FF90EF9008954F925A
:101CD0005F926F927F928F929F92AF92BF92CF92BC
:101CE000DF92EF92FF920F931F93CF93DF936C01DC
:101CF0002B015A0139014801DC01ED91FC9102846C
:101D0000F385E02D0995E201640C751CD601ED9177
:101D1000FC91C615D7055CF40088F189E02D870198
:101D20009401A501BE01C60109952196EFCF068851
:101D3000F789E02DC601DF91CF911F910F91FF90A0
:101D4000EF90DF90CF90BF90AF909F908F907F905B
:101D50006F905F904F9009948F929F92AF92BF9235
:101D6000CF92DF92EF92FF920F931F93CF93DF9367
:101D7000EC015B014A016901E881F9810284F38584
:101D8000E02D099595012C0D3D1D21503109E8816B
:101D9000F9810488F589E02D78018401A401B50159
:101DA000CE010995E881F9810688F789E02DCE01F9
:101DB000DF91CF911F910F91FF90EF90DF90CF9027
:101DC000BF90AF909F908F9009948F929F92AF9207
:101DD000BF92CF92DF92EF92FF920F931F93CF9318
:101DE000DF93EC015B014A0169017801E881F98127
:101DF0000284F385E02D0995C80CD91C8601015099
:101E00001109E881F9810488F589E02D9501A40183
:101E1000B501CE010995E881F9810688F789E02DA1
:101E2000CE01DF91CF911F910F91FF90EF90DF9046
:101E3000CF90BF90AF909F908F900994EF92FF92B8
:101E40000F931F93DC01ED91FC9100A0F1A1E02D17
:101E500009951F910F91FF90EF9008950F931F9395
:101E6000DC01ED91FC91068CF78DE02D09951F9119
:101E70000F9108950F931F93DC01ED91FC91048C59
:101E8000F58DE02D09951F910F910895DC01ED91DD
:101E9000FC910084F185E02D09943F924F925F926E
:101EA0006F927F928F929F92AF92BF92CF92DF926A
:101EB000EF92FF920F931F93CF93DF935C017B010F
:101EC0004A016901390187E0680E711C93E075943D
:101ED00067949A95E1F72B01400E511E10E000E047
:101EE000312CD0E0C0E0CE0187709927330C892BCC
:101EF00059F4FE0183E0F595E7958A95E1F7E00F47
:101F0000F11FE80DF91D349037FE0AC021E030E0E2
:101F1000A701B5016C0F7D1F82EE93E00E94460F72
:101F20002196CC16DD06F9F68FEFE81AF80A060DB1
:101F3000171DE414F504A9F6DF91CF911F910F91BD
:101F4000FF90EF90DF90CF90BF90AF909F908F90D9
:101F50007F906F905F904F903F9008952F923F92A7
:101F60004F925F926F927F928F929F92AF92BF92A9
:101F7000CF92DF92EF92FF920F931F93CF93DF9355
:101F800000D000D000D0CDB7DEB73C016A013E835F
:101F90002D83FC82EB825801A41AB50AB7FE03C058
:101FA000B194A194B1088D809E80861A970A97FEFD
:101FB00003C09194819491088A149B045CF0902F43
:101FC000812F0D811E819D838E839C2D8D2D6B0114
:101FD000692F782F0C151D055CF09D818E817E8305
:101FE0006D83692F782F902F812F8601C92ED82ECF
:101FF0001601201A310A2B012D813E81421A530A03
:1020000057FE03C0519441945108710137FE03C03B
:102010003FEFE31AF30AF594E7948D819E818617CA
:1020200097075CF5A1E0B0E0BA83A983C016D1069A
:102030004CF1D301ED91FC910484F585E02D2B81C9
:102040003C81A8016D817E818A149B041CF04D8126
:102050005E81B801C3010995E418F508F7FE0AC0CE
:102060002D813E8189819A81280F391F3E832D83DE
:10207000E20CF31C0F5F1F4FD9CF2FEF3FEF3A83D6
:102080002983D4CF26960FB6F894DEBF0FBECDBFFE
:10209000DF91CF911F910F91FF90EF90DF90CF9044
:1020A000BF90AF909F908F907F906F905F904F9078
:1020B0003F902F9008950895CF93CFB7F8948091D3
:1020C000D002811127C0E1E6FAE08491E5E7FAE069
:1020D0009491E82FF0E0EE0FFF1FE75CF54FA5911C
:1020E000B491EC91E92321F461E08AE00E94470673
:1020F00061E08AE00E9475068CB580618CBD8CB56C
:1021000080648CBD61E08DE00E94750661E08BE02B
:102110000E9475068091D0028F5F8093D002CFBF5E
:10212000CF91089520918602260F3327331F213245
:102130003105ECF42091AA02FC0190E080E024300B
:1021400069F082E00895A09186022191AC014A597C
:102150005D4FA40FB52FB11D2C930196861798F3F0
:1021600080918602680F6093860280E0089581E086
:1021700008951092AA0281E08093AC021092AB0203
:1021800061E082E10E94470661E083E10E94470628
:10219000E9EBF0E080818E7F808380818D7F80837A
:1021A00088E48093B80085E48093BC000895CF93C1
:1021B000DF9391E0909365028823B9F0C091B80055
:1021C000D091BA008091BC008A7B8093BC0060E013
:1021D00082E10E94470660E083E10E9447060E9478
:1021E000B910D093BA00C093B800DF91CF91089591
:1021F000E091D7028091D602E81730F4F0E0E05C7D
:10220000FD4F808190E008958FEF9FEF08959091AA
:10221000D7028091D6022FEF3FEF981748F4E92FAD
:10222000F0E0E05CFD4F208130E09F5F9093D702AB
:10223000C90108958091D6029091D702891B990B0C
:102240000895CF92DF92EF92FF920F931F93CF9357
:10225000DF937C01CB018A012091F202222389F0D5
:10226000EB016B01C40ED51ECC15DD0569F069913B
:10227000D701ED91FC910190F081E02DC701099506
:10228000F3CF642F0E949210C801DF91CF911F916C
:102290000F91FF90EF90DF90CF900895CF93DF9351
:1022A0001F92CDB7DEB769832091F2022223F9F0A5
:1022B0002091EF02203258F021E030E0FC0133831E
:1022C000228390E080E00F90DF91CF91089580917C
:1022D000F002E82FF0E0E05EFD4F998190838F5F80
:1022E0008093F0028093EF0281E090E0ECCF61E018
:1022F000CE0101960E949210F7CFCF92DF92EF921B
:10230000FF920F931F93CF93DF93D091EF0281E061
:10231000D13208F09CC0C091F1020E94A6066B0168
:102320007C018091AA0281116CC082E08093AA0294
:1023300081E08093AC028FEF8093A9021092CE02CD
:10234000D093CD02A0E2B2E0EDEAF2E080E0D81353
:102350008DC01092CF028091CF02CC0FC82BC093BA
:10236000CF028091AB02813009F084C01092AB02A1
:102370000E94A6066B017C018091CF028093BB0076
:102380008091610290916202A0916302B091640217
:10239000892B8A2B8B2BA1F00E94A606009161024B
:1023A0001091620220916302309164026C197D09E0
:1023B0008E099F09061717072807390708F442C036
:1023C0008091BC0083FDD8CF85EC8093BC000E9437
:1023D000A6066B017C018091AA02823009F44CC0F0
:1023E0008091A9028F3F09F469C08091A9028032CF
:1023F00009F466C08091A902803309F463C084E0C7
:1024000026C08091610290916202A0916302B09116
:102410006402892B8A2B8B2B09F483CF0E94A6069A
:102420000091610210916202209163023091640276
:102430006C197D098E099F090617170728073907A8
:1024400008F06FCF809160020E94D71085E0109253
:10245000F0021092EF021092F202DF91CF911F91E1
:102460000F91FF90EF90DF90CF9008959D91919301
:102470008F5F6DCF85EEA9CF80916102909162024E
:10248000A0916302B0916402892B8A2B8B2B09F4F3
:10249000A2CF0E94A60600916102109162022091D3
:1024A0006302309164026C197D098E099F09061739
:1024B00017072807390708F08ECFC4CF80E0C7CFB1
:1024C00082E0C5CF83E0C3CF90E080E00895209103
:1024D000DE02211118C00E9478052FB7F894809170
:1024E000E7029091E802A091E902B091EA022FBFC1
:1024F0008093D8029093D902A093DA02B093DB02C2
:1025000081E08093DE020895EF92FF920F931F9374
:10251000CF93DF93EC017B018A0182E00E941E06CB
:10252000892BA9F484E00E941E06019781F488811A
:1025300099810196B7010E94972299838883F801B7
:10254000099568EC70E080E090E00E94CB0682E0A4
:102550000E941E060197E9F484E00E941E06892B62
:10256000C1F48881998101978E0D9F1DB7010E944A
:10257000972299838883F801099568EC70E080E0E0
:1025800090E0DF91CF911F910F91FF90EF900C940D
:10259000CB06DF91CF911F910F91FF90EF9008959F
:1025A0008EBD00000DB407FEFDCF8EB50895EF92ED
:1025B000FF920F931F93CF93DF937C01C62F8091DF
:1025C000FF0390910004009709F459C0209103047F
:1025D00031E03093F2022093F1021092F002109257
:1025E000EF02DC01ED91FC910190F081E02D60E0C3
:1025F00009958701EE24E394F12CD1E0C15080913C
:10260000FF0390910004CF3F91F1B0E2EB16F1048B
:10261000D8F00E947D118091FF03909100042091D9
:102620000304D093F2022093F1021092F002109270
:10263000EF02DC01ED91FC910190F081E02D60E072
:102640000995EE24E394F12C8091FF03909100040E
:10265000F8016491DC01ED91FC910190F081E02D95
:102660000995BFEFEB1AFB0A0F5F1F4FC7CFDF9132
:10267000CF911F910F91FF90EF900C947D11E091FD
:102680000F04F091100490818091150480958923A6
:1026900080838701C15008F438C0F80184912091EB
:1026A000FD033091FE03232B29F00E94D0120F5F0F
:1026B0001F4FF0CF28E030E040E8E0910B04F091AC
:1026C0000C0490911304582F5423D9F05081952B6A
:1026D0009083E0910D04F0910E04908150911404C8
:1026E000952B9083E0910D04F0910E045081909110
:1026F0001404909595239083469521503109E9F66D
:10270000D6CF508190959523E3CFDF91CF911F9144
:102710000F91FF90EF900895CF93C82F60E08AE06B
:102720000E94470681E10E94D0128C2F0E94D01295
:1027300061E08AE0CF910C9447061F93CF93DF931B
:10274000EC018D8D9E8D009721F1162F29A131E08E
:102750003093F2022093F1021092F0021092EF02F5
:10276000DC01ED91FC910190F081E02D60E0099594
:102770008D8D9E8DDC01ED91FC910190F081E02D1D
:10278000612F09958D8D9E8DDF91CF911F910C94B6
:102790007D11ADA5BEA59C918BA9809589238C93B5
:1027A0008B8D9C8D892B31F0862FDF91CF911F91DE
:1027B0000C94D01228E030E080E8A9A5BAA599A928
:1027C000462F4823C1F04C91942B9C93ABA5BCA5FC
:1027D0009C914AA9942B9C93ABA5BCA54C919AA91A
:1027E000909594239C9386952150310931F7DF9180
:1027F000CF911F9108954C9190959423E6CFDF924D
:10280000EF92FF920F931F93CF93DF938091FF037B
:1028100090910004892B09F498C0209117043091FD
:1028200018044091190450911A0460E074E284EF96
:1028300090E00E945A2220513109410951095695D0
:102840004795379527952093B80065E083E99AE08E
:102850000E94D7126091E603615082EE93E00E94DD
:102860009D132091E8033091E903C901079697FD74
:10287000079633E0959587953A95E1F72091E60321
:102880003091E703829F8001839F100D929F100D6E
:102890001124C0910104D09102048091FF03909112
:1028A00000040C0F1D1F009709F48FC02091030432
:1028B00031E03093F2022093F1021092F002109274
:1028C000EF02DC01ED91FC910190F081E02D60E4DC
:1028D0000995EE24E394F12CDD24D3948091FF0339
:1028E000909100040C171D0709F446C0B0E2EB16E6
:1028F000F104D8F00E947D118091FF0390910004B3
:1029000020910304D092F2022093F1021092F0027F
:102910001092EF02DC01ED91FC910190F081E02D2D
:1029200060E40995EE24E394F12C8091FF039091EB
:1029300000046991DC01ED91FC910190F081E02DA2
:102940000995BFEFEB1AFB0AC9CF8091FD03909167
:10295000FE03892B31F080912004909121040E9484
:10296000630AE0911104F0911204908180911604A1
:1029700080958923808369CF0E947D118091FF0318
:1029800090910004892B09F461C020911B043091BF
:102990001C0440911D0450911E0460E074E284EF19
:1029A00090E00E945A22205131094109510956955F
:1029B0004795379527952093B800DF91CF911F91C8
:1029C0000F91FF90EF90DF900895E0910F04F09148
:1029D0001004808190911504892B80830C171D07AA
:1029E00069F289912091FD033091FE03232B19F0A8
:1029F0000E94D012F3CF28E030E040E8E0910B04D1
:102A0000F0910C0490911304582F5423D9F0508165
:102A1000952B9083E0910D04F0910E0490815091DC
:102A20001404952B9083E0910D04F0910E045081D5
:102A300090911404909595239083469521503109E7
:102A4000E9F6CCCF508190959523E3CFE091110426
:102A5000F0911204808190911604892B8083ADCF70
:102A60001F93CF93DF93EC01162F8D8D9E8D892BB5
:102A7000B1F12DA93EA94FA958AD60E074E284EFF1
:102A800090E00E945A22205131094109510956957E
:102A90004795379527952093B80066EA111167EAA4
:102AA000CE010E949D138D8D9E8D892B41F129AD04
:102AB0003AAD4BAD5CAD60E074E284EF90E00E9413
:102AC0005A222051310941095109569547953795A8
:102AD00027952093B800DF91CF911F9108958B8D9A
:102AE0009C8D892B21F08EAD9FAD0E94630AEFA5CE
:102AF000F8A990818CA9809589238083CECFEFA5FA
:102B0000F8A980819CA9892B8083E5CF2091E803D7
:102B10003091E903C901079697FD079623E0959543
:102B200087952A95E1F72091E6033091E703829F8C
:102B3000A001839F500D929F500D112470E060E022
:102B400080910104909102040C94CD250E94BF2530
:102B5000FC0180819181009711F00C9479240895F3
:102B6000FB0101900020E9F73197AF01461B570B9D
:102B7000DC01ED91FC910280F381E02D0994CF936B
:102B8000DF93FC01448155816081718182EE93E085
:102B90000E94FF06EC0166E571E082EE93E00E9480
:102BA000B0158C0F9D1FDF91CF910895AF92BF920A
:102BB000CF92DF92EF92FF920F931F93CF93DF9309
:102BC0000E94861505EB13E08AE0E82EF12CD0E098
:102BD000C0E0CC24C394D12C2AE0A22EB12C809149
:102BE000E2029091E3028C179D0741F51092F303E6
:102BF0001092F203D092F503C092F403B092EF0367
:102C0000A092EE03F092F103E092F003C8010E945B
:102C1000BF15219684E1E80EF11C0A5F1F4FC330F7
:102C2000D105E9F6DF91CF911F910F91FF90EF90C1
:102C3000DF90CF90BF90AF900C94FF13D092F5032C
:102C4000C092F403D092F303C092F203D7CF8F92D5
:102C50009F92AF92BF92EF92FF920F931F93CF93E9
:102C6000DF93CDB7DEB7A1970FB6F894DEBF0FBEE6
:102C7000CDBF7C01FA01CB0119A2223008F42AE071
:102C80008E010F5D1F4F822E912CB12CA12CBF0104
:102C9000A50194010E945A22F901CA016A300CF57B
:102CA000605DD8016E938D01232B242B252B79F7A2
:102CB00090E080E0109721F0BD01C7010E94B0159F
:102CC000A1960FB6F894DEBF0FBECDBFDF91CF91B6
:102CD0001F910F91FF90EF90BF90AF909F908F90BA
:102CE0000895695CDECF0E948615E2EEF3E08AE08B
:102CF00090E0958784879787868769E571E0CF01A3
:102D00000E94B0150E94FF1368EE73E080E090E02F
:102D10000C94CB060F931F93CF93DF93EC010E948B
:102D2000B0158C0166E571E0CE010E94B015800FF0
:102D3000911FDF91CF911F910F910895CF92DF9254
:102D4000EF92FF92CF93DF930E9486158091E0026D
:102D50009091E102892B09F48BC081E090E090937F
:102D6000F5038093F4039093F3038093F2038AE0D6
:102D700090E09093EF038093EE039093F1038093A0
:102D8000F00387EC93E00E94BF158091E0029091E0
:102D9000E1028130910509F476C081E090E09093E2
:102DA000F5038093F4039093F3038093F203CAE056
:102DB000D0E0D093EF03C093EE038EE190E09093C8
:102DC000F1038093F0038DEC93E00E94BF15809196
:102DD000DF02882309F444C00E948615D093EF03D4
:102DE000C093EE0382E390E09093F1038093F003AD
:102DF00062E671E082EE93E00E94B015A091DC02E1
:102E0000B091DD0224E539E641E050E00E941B224A
:102E100020E031E040E050E00E94F12169017A01B8
:102E2000BA01A90143585F4F6F4F7F4F77FF0DC025
:102E30006DE282EE93E00E94A10C43E85FEF6FEF3A
:102E40007FEF4C195D096E097F092AE082EE93E05D
:102E50000E94271666E671E082EE93E00E948A16D1
:102E6000DF91CF91FF90EF90DF90CF900C94FF1304
:102E70001092F3031092F20381E090E09093F50337
:102E80008093F40374CF1092F3031092F2039093A3
:102E9000F5038093F4038BCF4F925F926F927F92F2
:102EA0008F929F92AF92BF92CF92DF92EF92FF925A
:102EB0006CE671E083EF92E00E948A1680E48093D2
:102EC0007C0080917A00806480937A0080917A00FF
:102ED00086FDFCCF6091780070917900072E000C80
:102EE000880B990B0E94D4202AE038E240EA5BE389
:102EF0000E9433216B017C0120E03AEA44EB57E465
:102F00000E9433214B015C01A701960160E070E053
:102F100080EA90E40E94C5229B01AC01C501B40186
:102F20000E9432236B017C014B015C016FE771E071
:102F300083EF92E00E94B015A7019601C701B60188
:102F40000E94D82366E971E081111AC02601370179
:102F5000E89477F82FEF3FEF4FE75FE7C301B20147
:102F60000E94D823811128C02FEF3FEF4FE75FE782
:102F7000C301B2010E94CD201816F4F46AE971E091
:102F800083EF92E00E94B01566E671E083EF92E075
:102F90000E948A1668EE73E080E090E0FF90EF9068
:102FA000DF90CF90BF90AF909F908F907F906F9069
:102FB0005F904F900C94CB062FEF3FEF4FE75FE40D
:102FC000C701B6010E94D32318161CF46EE971E004
:102FD000D7CF2FEF3FEF4FE75FECC701B6010E945D
:102FE000CD2087FDF3CF20E030E0A901C701B60175
:102FF0000E94CD2087FF0BC06DE283EF92E00E941C
:103000009F0746015701B7FAB094B7F8B0942AE089
:1030100037ED43EA5BE3C501B4010E94C6224B01D0
:103020005C010E94A4236B017C010E94D2209B01C1
:10303000AC01C501B4010E94C5224B015C012AE02C
:10304000B701A60183EF92E00E9427166EE283EF9C
:1030500092E00E949F0720E030E040E251E4C50189
:10306000B4010E9433214B015C010E94A4236B0137
:10307000F12CE12C2AE0B701A60183EF92E00E9437
:103080002716C701B6010E94D2209B01AC01C501E1
:10309000B4010E94C52220E030E040E251E40E94E9
:1030A00033210E94A423AB0170E060E02AE083EFAB
:1030B00092E00E94271668CFEF92FF920F931F9322
:1030C000CF93DF93EC017B01198218821B821A8255
:1030D0001D821C82FB0101900020E9F731978F01CE
:1030E000061B170BB8016F5F7F4F90E080E00E94D6
:1030F00002250097B9F0998388831B830A832C816A
:103100003D81232B11F4FC0110821D830C83B70138
:1031100088819981DF91CF911F910F91FF90EF905E
:103120000C94D42588819981009711F00E9479240C
:10313000198218821D821C821B821A82DF91CF9114
:103140001F910F91FF90EF90089585ED8093BC0043
:103150008091610290916202A0916302B091640239
:103160000796A11DB11D23E0B695A7959795879564
:103170002A95D1F72091BC0024FD03C01092AA0229
:1031800008954091610250916202609163027091D2
:103190006402452B462B472B69F30097A105B10527
:1031A00041F02AE22A95F1F700C00197A109B1097F
:1031B000E1CF809160020C94D7101F920F920FB64E
:1031C0000F9211242F933F938F939F93AF93BF93AD
:1031D0008091E7029091E802A091E902B091EA02A1
:1031E0003091E60223E0230F2D3758F50196A11DFB
:1031F000B11D2093E6028093E7029093E802A0932A
:10320000E902B093EA028091EB029091EC02A09166
:10321000ED02B091EE020196A11DB11D8093EB026B
:103220009093EC02A093ED02B093EE02BF91AF91A8
:103230009F918F913F912F910F900FBE0F901F90F4
:10324000189526E8230F0296A11DB11DD2CF1F921B
:103250000F920FB60F9211242F933F934F935F93CA
:103260006F937F938F939F93AF93BF93EF93FF934E
:1032700083EF92E00E947D07FF91EF91BF91AF91A4
:103280009F918F917F916F915F914F913F912F917E
:103290000F900FBE0F901F9018951F920F920FB6B0
:1032A0000F9211242F938F939F93EF93FF93E091AD
:1032B0000303F09104038081E0910903F0910A0374
:1032C00082FD1BC0908180910C038F5F8F732091D2
:1032D0000D03821741F0E0910C03F0E0ED50FD4F3B
:1032E000958F80930C03FF91EF919F918F912F9178
:1032F0000F900FBE0F901F9018958081F4CF1F92F2
:103300000F920FB60F9211242F933F934F935F9319
:103310006F937F938F939F93AF93BF93CF93DF93DD
:10332000EF93FF938091D102C091B403D0E087FF67
:1033300024C010928500109284008091D1028F5F8A
:103340008093D1028091D102082E000C990B8C172A
:103350009D0724F48091D1028C30C4F180918400C7
:1033600090918500049680349C4908F47AC080913D
:10337000840090918500049676C08091D102082E39
:10338000000C990B8C179D07C4F6E091D1028E2F8B
:10339000EE0F990BFC01EE0FFF1FE80FF91FE0572E
:1033A000FC4F808186FFC9CFE091D1028E2FEE0FB6
:1033B000990BFC01EE0FFF1FE80FF91FE057FC4FC0
:1033C000808160E08F730E944706B7CF2091840010
:1033D00030918500E091D1028E2FEE0F990BFC0108
:1033E000EE0FFF1FE80FF91FE057FC4F818192811C
:1033F000820F931F9093890080938800E091D102FF
:103400008E2FEE0F990BFC01EE0FFF1FE80FF91F37
:10341000E057FC4F808186FF11C0E091D1028E2FD2
:10342000EE0F990BFC01EE0FFF1FE80FF91FE0579D
:10343000FC4F808161E08F730E944706FF91EF91FE
:10344000DF91CF91BF91AF919F918F917F916F91BC
:103450005F914F913F912F910F900FBE0F901F9052
:10346000189580E49CE990938900809388008FEF01
:103470008093D102E3CF1F920F920FB60F921124C7
:103480002F933F934F935F936F937F938F939F936C
:10349000AF93BF93EF93FF938091B900887F8036FD
:1034A00009F44AC0F0F5883209F4A7C018F5803154
:1034B00009F49BC0B8F4882309F4F9C0883009F4F2
:1034C00094C0FF91EF91BF91AF919F918F917F91A8
:1034D0006F915F914F913F912F910F900FBE0F9081
:1034E0001F901895883109F488C0803251F7809375
:1034F000A90214C0803409F49DC040F48033B9F3AC
:103500008833F9F68093A90285ECB0C0803509F4C0
:1035100085C0883509F496C0883499F60E94A518AC
:10352000D0CF883909F48CC038F5883729F050F4A9
:10353000883611F0803729F683E08093AA02109232
:10354000A80257C0883809F47BC0803919F0803848
:1035500009F0B7CF8091A802803208F071C0E091E5
:10356000A80281E08E0F8093A8028091BB00F0E05A
:10357000E857FD4F80833DC0803B39F0E0F4803A4E
:1035800009F479C0883A09F09CCF84E08093AA02BC
:103590001092870210928602E091D402F091D50237
:1035A00009958091860281110FC081E08093860287
:1035B0001092660209C0803C09F4A6CF883C09F449
:1035C000A3CF883B09F07DCFE091870281E08E0F89
:1035D00080938702F0E0EA59FD4F80818093BB0021
:1035E000909187028091860229C08091CF028093BA
:1035F000BB0085EC8093BC0064CF9091CE0280919B
:10360000CD02981758F5E091CE0281E08E0F80939D
:10361000CE02F0E0E355FD4F8081E9CFE091CE028C
:1036200081E08E0F8093CE028091BB00F0E0E355E5
:10363000FD4F80839091CE028091CD029817C8F201
:1036400085E8D8CFE091CE0281E08E0F8093CE0244
:103650008091BB00F0E0E355FD4F80838091AC0288
:1036600081115CCF81E08093AB0284EA8093BC003F
:103670001092AA0226CF85EC8093BC001092AA0279
:103680008091A802803230F4E091A802F0E0E8577F
:10369000FD4F10826091A80270E0E091D202F0919B
:1036A000D30288E892E009951092A8020ACF1092FE
:1036B000A90234CF1092F6021092F50288EE93E040
:1036C000A0E0B0E08093F7029093F802A093F90293
:1036D000B093FA022AE031E03093F4022093F3022F
:1036E00025EC30E0309300032093FF0224EC30E01F
:1036F000309302032093010320EC30E03093040365
:103700002093030321EC30E030930603209305035C
:1037100022EC30E0309308032093070326EC30E0DE
:1037200030930A032093090310920C0310920D03A7
:1037300010920E0310920F031092D9031092D80327
:103740008093DA039093DB03A093DC03B093DD0353
:103750008CE191E09093D7038093D6031092E50318
:103760001092E40320E830E03093E7032093E6036F
:1037700080E490E09093E9038093E8033093EB03B7
:103780002093EA039093ED038093EC031092F803E7
:103790001092EF031092EE031092F1031092F003D7
:1037A00081E08093F7038093F6032FEF3FEF309390
:1037B000F5032093F4033093F3032093F2038093F3
:1037C000F9031092FA031092FC031092FB038EE2AD
:1037D00091E09093E3038093E2031092FE03109232
:1037E000FD0386ED93E0909300048093FF03109215
:1037F0000204109201049FEF909306049093070433
:10380000909308049093090490930A0440E85AE1C5
:1038100066E070E040931704509318046093190415
:1038200070931A0440EA56E861E070E040931B048C
:1038300050931C0460931D0470931E0480E58093D4
:103840002004109221048091B4038C3080F591E023
:10385000980F9093B4038093D30390E0FC01EE0F94
:10386000FF1FE80FF91FE057FC4F88EB9BE09283A6
:10387000818362EA71E087EC93E00E945C1860EB60
:1038800071E08DEC93E00E945C186DEB71E085EBCC
:1038900093E00E945C1865EC71E08BEB93E00E9472
:1038A0005C186BEC71E081EC93E00C945C189093E5
:1038B000D303DFCFCF93DF9300D000D000D0CDB7BC
:1038C000DEB7789484B5826084BD84B5816084BDA0
:1038D00085B5826085BD85B5816085BD80916E00AE
:1038E000816080936E0010928100809181008260DF
:1038F000809381008091810081608093810080911C
:1039000080008160809380008091B100846080930A
:10391000B1008091B00081608093B00080917A0006
:10392000846080937A0080917A00826080937A002C
:1039300080917A00816080937A0080917A0080681B
:1039400080937A001092C100E0910303F091040388
:1039500082E08083E091FF02F09100031082E09109
:103960000103F09102038FEC808310920B03E0912E
:103970000703F091080386E08083E0910503F0914E
:103980000603808180618083E0910503F091060346
:10399000808188608083E0910503F0910603808137
:1039A00080688083E0910503F091060380818F7D1C
:1039B000808361E08AE00E94750662E082E00E94F6
:1039C000750662E084E00E94750662E085E00E9470
:1039D000750661E08AE00E9447060E945C108091B3
:1039E000010490910204892B11F10E948615209107
:1039F000E8033091E9038091E6039091E7032132D7
:103A000031050CF04BC0B9016052710977FF02C05B
:103A10006F5F7F4F759567958357910997FD019665
:103A200000E210E023E730E04AE855E04AC0209188
:103A3000E8033091E903C901079697FD0796B3E0C3
:103A400095958795BA95E1F72091E6033091E703C4
:103A5000AC01429FC001439F900D529F900D1124D5
:103A60000E94DD239093020480930104892B09F0C6
:103A7000BCCF0AE21AE0F8016491662341F083EFBB
:103A800092E00E949F070F5F1F4F892BA1F766E509
:103A900071E083EF92E00E94B015FFCFB90160544E
:103AA000710977FF02C06F5F7F4F759567958255EB
:103AB000910997FD019600E410E022E530E04AE626
:103AC00057E0959587950E944D0F82E080930404FE
:103AD0008091FF0390910004892B09F488C18CE345
:103AE000809303041092D7021092D6021092F00233
:103AF0001092EF020E94B9108DEF96E09093D502DC
:103B00008093D4028EEF96E09093D3028093D202FA
:103B100080910A0487FD1EC061E00E94750661E085
:103B200080910A040E94470661E070E080E090E026
:103B30000E94CB0660E080910A040E9447066AE07A
:103B400070E080E090E00E94CB0661E080910A0482
:103B50000E9447068091FF0390910004892B09F48D
:103B6000D3C1209117043091180440911904509149
:103B70001A0460E074E284EF90E00E945A2220511F
:103B80003109410951095695479537952795209355
:103B9000B80064E086E895E00E94D7126091E803DF
:103BA000615082EE93E00E949D1364E082E895E00C
:103BB0000E94D7128091040460E1813009F064E131
:103BC00082EE93E00E949D1364E08EE795E00E94F0
:103BD000D7128FE880931F048091E6039091E7034A
:103BE0008038910509F0A9C18091E8039091E9031B
:103BF0008034910509F0B1C180910404813009F04D
:103C00009AC18FE980931F0412E16AED82EE93E07E
:103C10000E949D13612F82EE93E00E949D1361E844
:103C200082EE93E00E949D1360911F0482EE93E068
:103C30000E949D1369ED82EE93E00E949D13809196
:103C4000040462E2813009F061EF82EE93E00E94A9
:103C50009D1366E088E795E00E94D7128091FF03EC
:103C600090910004892B09F47CC120911B043091B0
:103C70001C0440911D0450911E0460E074E284EF26
:103C800090E00E945A22205131094109510956956C
:103C90004795379527952093B8000E94861581E0B7
:103CA0008093F6038093F70381E090E09093F5030F
:103CB0008093F4039093F3038093F2030E949E1683
:103CC0008091D3038C3008F051C061E089E00E94FC
:103CD00075068091D303282F30E0F901EE0FFF1F06
:103CE000E20FF31FE057FC4F9081907C9960908326
:103CF0001092D4031092D5032CE0622F0E948B22E5
:103D0000829FB001112430E020E0AB01420F531F2D
:103D1000FA01EE0FFF1FE40FF51FE057FC4F9081F3
:103D200096FD16C02F5F3F4F2C30310571F7811182
:103D30000FC01092800082E0809381001092850075
:103D400010928400B19A80916F00826080936F001E
:103D5000E091D3038E2F90E0FC01EE0FFF1FE80FE0
:103D6000F91FE057FC4F808180648083CC24C3948A
:103D700080E0E82E80E0F82EDD24D39485E00E94D8
:103D80001E06892B09F017C18091E502811113C12C
:103D90008091E402D092E502882309F4BBC18091AE
:103DA000E2029091E302009709F0E5C06DEB71E04B
:103DB000CE0101960E945C180E947316CE010196F6
:103DC0000E94A81584EB90E00E94671264EF71E0F6
:103DD00080E090E00E94CB060E944C1764EF71E0F7
:103DE00080E090E00E94CB060E94D615DEC061E024
:103DF000809108040E94750661E0809109040E9488
:103E0000750680910804082E000C990BFC01E95AF4
:103E1000F54FE491F0E0EE0FFF1FED5BF54F2591BC
:103E200034913093100420930F04FC01E559F54FB1
:103E3000E491E093150480910904082E000C990B7D
:103E4000FC01E95AF54FE491F0E0EE0FFF1FED5B46
:103E5000F54FA591B491B0931204A0931104FC0105
:103E6000E559F54FE491E09316048C91E82BEC931F
:103E70008091FD039091FE03892B19F00E945C1044
:103E800047CE61E0809106040E94750661E0809152
:103E900007040E94750680910604082E000C990BF9
:103EA000FC01E95AF54FE491F0E0EE0FFF1FED5BE6
:103EB000F54F2591349130930C0420930B04FC01B1
:103EC000E559F54FE491E093130480910704082E1F
:103ED000000C990BFC01E95AF54FE491F0E0EE0F6C
:103EE000FF1FED5BF54FA591B491B0930E04A09325
:103EF0000D04FC01E559F54FE491E09314048C9115
:103F0000E095E823EC9304CE8091FD039091FE03AD
:103F1000892B31F080912004909121040E94630A42
:103F2000E0911104F0911204908180911604809523
:103F3000892380832ECE8FEC65CE8036910569F47F
:103F40008091E8039091E903409739F4809104044B
:103F5000813029F480E180931F0412E056CE8FEA6D
:103F6000FACFE0911104F09112048081909116042F
:103F7000892B808392CE8130910589F465EC71E0C4
:103F8000CE0101960E945C180E947316CE01019624
:103F90000E94A81581E090E00E9467121DCF029751
:103FA00021F41092E4020E949E166CE271E080E01F
:103FB00090E00E94CB0685E00E941E06019711F456
:103FC0001092E5028091DF0281110CC08091E40221
:103FD000811108C04EE956E162E070E080EE92E0A7
:103FE0000E9484128091E402882341F046ED55E15D
:103FF00063E070E082EE92E00E9484128091DF0222
:10400000882309F455C08091DE02811155C082E0F9
:104010000E941E068C01892B21F584E00E941E0659
:104020000197F9F48091DC029091DD028F3FFFEF60
:104030009F0744F08C018F3F910514F00EEF10E0C4
:104040000F5F1F4F1093DD020093DC02C8010E9436
:104050008C130E949E1668EC70E080E090E00E9455
:10406000CB0682E00E941E06019711F584E00E94B3
:104070001E060097E9F42091DC023091DD02121651
:10408000130644F4C901813021E0920714F080E066
:1040900091E001979093DD028093DC020E948C13E3
:1040A0000E949E1668EC70E080E090E00E94CB06D3
:1040B0008091DE02882311F12FB7F8948091E702F6
:1040C0009091E802A091E902B091EA022FBF4091DD
:1040D000D8025091D9026091DA027091DB02841B00
:1040E000950BA60BB70B883B9B40A105B10530F0A3
:1040F0008AE590E00E9478051092DE02E114F10456
:1041000009F43CCE0E946907882309F437CE0E9447
:10411000000034CE8091E0029091E102009781F49A
:104120008091DF028C258093DF0262ED71E08111C6
:1041300002C060EF71E083EF92E00E948A1633CFF5
:10414000019709F032CFD092E4021092E30210926C
:10415000E2024ACE81EC93E00E94A8158BEB93E03B
:104160000E94A81585EB93E00E94A8158DEC93E0C2
:104170000E94A81587EC93E00E94A8158EE291E0BA
:104180009093E3038093E2038091010490910204F1
:10419000009711F00C94792408950E940F2108F4DF
:1041A00081E00895E89409C097FB3EF490958095CE
:1041B000709561957F4F8F4F9F4F9923A9F0F92FED
:1041C00096E9BB279395F695879577956795B7956B
:1041D000F111F8CFFAF4BB0F11F460FF1BC06F5F51
:1041E0007F4F8F4F9F4F16C0882311F096E911C063
:1041F000772321F09EE8872F762F05C0662371F084
:1042000096E8862F70E060E02AF09A95660F771F97
:10421000881FDAF7880F9695879597F90895990F73
:104220000008550FAA0BE0E8FEEF16161706E80780
:10423000F907C0F012161306E407F50798F0621BA1
:10424000730B840B950B39F40A2661F0232B242B76
:10425000252B21F408950A2609F4A140A6958FEF95
:10426000811D811D08950E9446210C94B7210E9452
:10427000A92138F00E94B02120F0952311F00C9470
:10428000A0210C94A62111240C94EB210E94C8219A
:1042900070F3959FC1F3950F50E0551F629FF00199
:1042A000729FBB27F00DB11D639FAA27F00DB11DB2
:1042B000AA1F649F6627B00DA11D661F829F22273B
:1042C000B00DA11D621F739FB00DA11D621F839FC2
:1042D000A00D611D221F749F3327A00D611D231F98
:1042E000849F600D211D822F762F6A2F11249F57E6
:1042F00050409AF0F1F088234AF0EE0FFF1FBB1FE9
:10430000661F771F881F91505040A9F79E3F5105A7
:1043100080F00C94A0210C94EB215F3FE4F3983ED5
:10432000D4F3869577956795B795F795E7959F5F51
:10433000C1F7FE2B880F911D9695879597F90895E3
:1043400097F99F6780E870E060E008959FEF80EC48
:10435000089500240A9416161706180609060895EB
:1043600000240A9412161306140605060895092E51
:104370000394000C11F4882352F0BB0F40F4BF2BC0
:1043800011F460FF04C06F5F7F4F8F4F9F4F089500
:1043900057FD9058440F551F59F05F3F71F04795F6
:1043A000880F97FB991F61F09F3F79F087950895DB
:1043B000121613061406551FF2CF4695F1DF08C0FA
:1043C000161617061806991FF1CF86957105610517
:1043D00008940895E894BB2766277727CB0197F9BF
:1043E0000895052E97FB1EF400940E94082257FDA5
:1043F00007D00E945A2207FC03D04EF40C940822E6
:1044000050954095309521953F4F4F4F5F4F089500
:1044100090958095709561957F4F8F4F9F4F089530
:104420000E947C22A59F900DB49F900DA49F800DAB
:10443000911D11240895B7FF0C9410220E941022A0
:10444000821B930B08952F923F924F925F926F922F
:104450007F928F929F92AF92BF92CF92DF92EF9214
:10446000FF920F931F93CF93DF93CDB7DEB7CA1B95
:10447000DB0B0FB6F894DEBF0FBECDBF09942A88C0
:10448000398848885F846E847D848C849B84AA8468
:10449000B984C884DF80EE80FD800C811B81AA81F5
:1044A000B981CE0FD11D0FB6F894DEBF0FBECDBFC0
:1044B000ED010895A1E21A2EAA1BBB1BFD010DC040
:1044C000AA1FBB1FEE1FFF1FA217B307E407F507C4
:1044D00020F0A21BB30BE40BF50B661F771F881FA0
:1044E000991F1A9469F760957095809590959B0136
:1044F000AC01BD01CF010895A29FB001B39FC001DF
:10450000A39F700D811D1124911DB29F700D811DFF
:104510001124911D0895991B79E004C0991F9617E5
:1045200008F0961B881F7A95C9F78095089597FB28
:10453000072E16F4009407D077FD09D00E94AB2215
:1045400007FC05D03EF4909581959F4F0895709596
:1045500061957F4F0895AA1BBB1B51E107C0AA1F9D
:10456000BB1FA617B70710F0A61BB70B881F991F14
:104570005A95A9F780959095BC01CD010895EE0F4D
:10458000FF1F0590F491E02D09945058BB27AA27EE
:104590000E94DD220C94B7210E94A92138F00E94CC
:1045A000B02120F039F49F3F19F426F40C94A62191
:1045B0000EF4E095E7FB0C94A021E92F0E94C8219E
:1045C00058F3BA17620773078407950720F079F448
:1045D000A6F50C94EA210EF4E0950B2EBA2FA02D2F
:1045E0000B01B90190010C01CA01A0011124FF27A0
:1045F000591B99F0593F50F4503E68F11A16F0409B
:10460000A22F232F342F4427585FF3CF4695379599
:104610002795A795F0405395C9F77EF41F16BA0B5E
:10462000620B730B840BBAF09150A1F0FF0FBB1F0C
:10463000661F771F881FC2F70EC0BA0F621F731F55
:10464000841F48F4879577956795B795F7959E3FB2
:1046500008F0B0CF9395880F08F09927EE0F979543
:10466000879508950E9446230C94B7210E94B0219B
:1046700058F00E94A92140F029F45F3F29F00C94E2
:10468000A02151110C94EB210C94A6210E94C82169
:1046900068F39923B1F3552391F3951B550BBB2771
:1046A000AA2762177307840738F09F5F5F4F220FB6
:1046B000331F441FAA1FA9F335D00E2E3AF0E0E8AD
:1046C00032D091505040E695001CCAF72BD0FE2FF7
:1046D00029D0660F771F881FBB1F2617370748078B
:1046E000AB07B0E809F0BB0B802DBF01FF27935843
:1046F0005F4F3AF09E3F510578F00C94A0210C9446
:10470000EB215F3FE4F3983ED4F386957795679568
:10471000B795F7959F5FC9F7880F911D9695879577
:1047200097F90895E1E0660F771F881FBB1F621796
:1047300073078407BA0720F0621B730B840BBA0B54
:10474000EE1F88F7E09508950E94D02188F09F57CA
:1047500098F0B92F9927B751B0F0E1F0660F771FA5
:10476000881F991F1AF0BA95C9F714C0B13091F09B
:104770000E94EA21B1E008950C94EA21672F782F76
:104780008827B85F39F0B93FCCF386957795679560
:10479000B395D9F73EF490958095709561957F4FCC
:1047A0008F4F9F4F08950E940F2108F48FEF0895B7
:1047B0000E940F21880B990B08950F931F93CF939D
:1047C000DF938230910510F482E090E0E0912404C0
:1047D000F091250430E020E0B0E0A0E0309799F4BB
:1047E0002115310509F44AC0281B390B2430310545
:1047F000D8F58A819B816115710589F1FB0193834D
:104800008283FE0111C040815181028113814817CA
:104810005907E0F04817590799F4109761F012967C
:104820000C93129713961C933296CF01DF91CF9180
:104830001F910F9108950093240410932504F4CF41
:104840002115310551F04217530738F0A901DB015A
:104850009A01BD01DF01F801C1CFEF01F9CF9093BB
:10486000250480932404CDCFFE01E20FF31F819332
:1048700091932250310939832883D7CF2091220484
:1048800030912304232B41F4209102013091030144
:1048900030932304209322042091000130910101E0
:1048A0002115310541F42DB73EB7409104015091D7
:1048B0000501241B350BE0912204F0912304E2173B
:1048C000F307A0F42E1B3F0B2817390778F0AC0133
:1048D0004E5F5F4F2417350748F04E0F5F1F509310
:1048E000230440932204819391939FCFF0E0E0E072
:1048F0009CCFCF93DF930097E9F0FC0132971382AE
:104900001282A0912404B0912504ED0130E020E052
:104910001097A1F420813181820F931F20912204EE
:10492000309123042817390709F061C0F09323045C
:10493000E0932204DF91CF910895EA01CE17DF07BB
:10494000E8F54A815B819E0141155105B1F7E90106
:10495000FB83EA8349915991C40FD51FEC17FD07DA
:1049600061F4808191810296840F951FE9019983FA
:104970008883828193819B838A83F0E0E0E01296B2
:104980008D919C9113970097B9F52D913C911197BA
:10499000CD010296820F931F2091220430912304AF
:1049A0002817390739F6309751F5109225041092DF
:1049B0002404B0932304A0932204BCCFD383C283E6
:1049C00040815181840F951FC817D90761F44E5F4C
:1049D0005F4F88819981480F591F518340838A8195
:1049E0009B81938382832115310509F0B0CFF09329
:1049F0002504E09324049ECFFD01DC01C0CF138287
:104A00001282D7CFB0E0A0E0E8E0F5E20C942522D6
:104A10008C01009751F4CB010E94DD238C01C80169
:104A2000CDB7DEB7E0E10C944122FC01E60FF71FA1
:104A30009C0122503109E217F30708F49DC0D90107
:104A4000CD91DC911197C617D70798F0C530D105E5
:104A500030F3CE0104978617970708F3C61BD70BD0
:104A60002297C193D1936D937C93CF010E947924B7
:104A7000D6CF5B01AC1ABD0A4C018C0E9D1EA091D5
:104A80002404B0912504512C412CF12CE12C1097D9
:104A900031F580912204909123048815990509F03D
:104AA0005CC04616570608F058C0809100019091EE
:104AB0000101009741F48DB79EB7409104015091D8
:104AC0000501841B950BE817F90708F055C0F09312
:104AD0002304E0932204F90171836083A0CF8D91B8
:104AE0009C91119712966C90129713967C90139745
:104AF000A815B90559F56C0142E0C40ED11CCA14C1
:104B0000DB0420F1AC014A195B09DA011296159712
:104B100080F06282738251834083D9016D937C93CC
:104B2000E114F10471F0D7011396FC93EE93129700
:104B300076CF22968C0F9D1FF90191838083F3011C
:104B4000EFCFF0932504E093240469CF481659066B
:104B500008F42C017D01D3019ACFCB010E94DD2303
:104B60007C01009749F0AE01B8010E94C425C8013C
:104B70000E947924870153CF10E000E050CF81E0FC
:104B800090E0F8940C94DB25FB01DC0102C001905D
:104B90000D9241505040D8F70895DC0101C06D934B
:104BA00041505040E0F70895FB01DC0101900D9267
:104BB0000020E1F7089515E0CDE4D5E004C0FE0142
:104BC0000E94BF222196CE34D107C9F7F894FFCFB7
:104BD000000026048000000000009F07FF062C074D
:104BE000EC075D073B074F07000000004E11211145
:104BF0006412F4051A110711F81000000000A10C4E
:104C0000FF0664125B10B309F405460F1E0F3A0F3E
:104C10002E0FAE0FF405670A301523096C09670ED5
:104C20004A0ED20D730D0D0A00456E20636F75722A
:104C30007300523A2000206F686D73004D657375E4
:104C4000726520656E20636F7572732E2E2E005272
:104C5000C3A973697374616E6365206D6573757242
:104C6000C3A9653A20006E616E00696E66006F76BA
:104C70006600526573697374616E63652052320019
:104C8000536572766F2D6D6F7465757200506F7518
:104C900073736572005469726572005265746F7542
:104CA000720052C3A9676C616765206465206C61FE
:104CB0002072C3A973697374616E63652E2E2E0012
:104CC000536F72746965206475206D6F646520642C
:104CD000652072C3A9676C616765206465206C619B
:104CE0002072C3A973697374616E63652E2E2E00E2
:00000001FF
